:060000000A128A11FC2F18
:1008B000FD01F91F622CF809F909F80A0319F90A70
:1008C000FD01FD0A7808F0007908F100F2018E3090
:1008D000FB007B08F3007D08FC007C08F4000A1292
:1008E0008A1179247008F8007108F9007208FA007A
:1008F000080073080319812C720871047004031D29
:10090000942C0030F0000030F1000030F2000800BC
:100910000130F5007508F30701300310F20CF10CFB
:10092000F00CFF3E031D8D2CFE3072050319AF2C19
:10093000882C0130F5007508F3070130F00700300E
:1009400003180130F107003003180130F2070130BD
:100950000310F20CF10CF00CFF3E031DA82CFF302D
:1009600072050319BE2C992C0130F30201300310DB
:10097000F00DF10DF20DFF3E031DB72CF11BC42C41
:10098000023073020318B42C7318CC2CFF30F0051E
:100990007F30F105FF30F2050310F30C7308F5000A
:1009A000F601F70110300310F50DF60DF70DFF3EBF
:1009B000031DD32C7508F0047608F1047708F204BF
:1009C000740803190800F217080083120313400883
:1009D000C4004108C5004208C6000310450D460D7D
:1009E000C7004708CD004D08031DFF2C0030C30091
:1009F0000030C2000030C1000030C00008004008D4
:100A0000C4004108C5004208C60017300310C60CD8
:100A1000C50CC40CFF3E031D062D4408C700470843
:100A2000C800C117FF30C005FF30C1050030C20546
:100A30004008C9004108CA004208CB00CC018E30F2
:100A4000CD02CD1F412D4D08803A8F3E0318312D28
:100A50000030C3000030C2000030C1000030C000D0
:100A6000080001300310CC0CCB0CCA0CC90CFF3EA3
:100A7000031D322D0130C4004408CD0703195C2D3D
:100A8000312D18304D02031C592D0030C3000030A9
:100A9000C2000030C1000030C00008000130C400B6
:100AA0000310C90DCA0DCB0DCC0DC40B502D013058
:100AB000CD024D08031D4E2D480803196A2DC909A2
:100AC000CA09CB09CC09C90A0319CA0A0319CB0AF6
:100AD0000319CC0A4C08C3004B08C2004A08C100E5
:100AE0004908C0000800831203133308B600340815
:100AF000B7003508B8000310370D380DB9003908B4
:100B0000BE003E08031D8B2D0030B0000030B10048
:100B10000030B20008003008B6003108B7003208D3
:100B2000B8000310370D380DB9003908BF003F0871
:100B3000031DA12D0030B0000030B1000030B20024
:100B400008000030BB000030BC000030BD00893020
:100B50003F07B6003608BE023308B6003408B700B7
:100B60003508B80010300310B80CB70CB60CFF3EB7
:100B7000031DB32D3608B9003908BF003008B60090
:100B80003108B7003208B80010300310B80CB70CA9
:100B9000B60CFF3E031DC52D3608B9003908BF0647
:100BA0008030B6003608BF05B417FF30B305FF30FC
:100BB000B4050030B505B117FF30B005FF30B10501
:100BC0000030B2051830B6003608BA000130031004
:100BD000BB0DBC0DBD0DFF3E031DE72D32083502D8
:100BE000031DF82D31083402031DF82D300833029F
:100BF000031C052E3008B3023108031C310FB40268
:100C00003208031C320AB5023B1401300310B30D45
:100C1000B40DB50DFF3E031D062E0130BA02031DB3
:100C2000E62D3B08F0003C08F1003D08F2003E08CC
:100C3000B6003608F3003F08B7003708F4000A1280
:100C40008A117924700883120313B0007108B1006F
:100C50007208B2000800831203132008A6002108BE
:100C6000A7002208A8000310270D280DA9002908B5
:100C7000AA002A08031D432E0030A0000030A10066
:100C80000030A20008002308A6002408A7002508B9
:100C9000A8000310270D280DA9002908AF002F0870
:100CA000031D592E0030A0000030A1000030A2002A
:100CB00008002F087B3EA6002608AA072008A600E9
:100CC0002108A7002208A80010300310A80CA70CC8
:100CD000A60CFF3E031D652E2608A9002908AF00BB
:100CE0002308A6002408A7002508A8001030031038
:100CF000A80CA70CA60CFF3E031D772E2608A90002
:100D00002908AF068030A6002608AF05A117A41752
:100D1000FF30A305FF30A4050030A5050030AB006F
:100D20000030AC000030AD000730A6002608AE0051
:100D3000201CA82E2308AB07240803110318240A3B
:100D4000031DAC07250803110318250A031DAD0771
:100D500001300310A20CA10CA00CFF3E031DA92E14
:100D600001300310A30DA40DA50DFF3E031DB12EF0
:100D70000130AE02031D982E0930A6002608AE00F1
:100D8000201CD02E2308AB07240803110318240AC3
:100D9000031DAC07250803110318250A031DAD0721
:100DA00001300310A20CA10CA00CFF3E031DD12E9C
:100DB00001300310AD0CAC0CAB0CFF3E031DD92E63
:100DC0000130AE02031DC02E2B08F0002C08F100EC
:100DD0002D08F2002A08A6002608F3002F08A70015
:100DE0002708F4000A128A11792470088312031369
:100DF000A0007108A1007208A20008008316031366
:100E00008801861006158611061286160811103004
:100E10008312031390000B3083120313D00026308B
:100E2000CF005D30CE00CE0B132FCF0B132FD00B86
:100E3000132F831203138F018E0186140230831245
:100E40000313CE00CE0B222F000083120313861053
:100E5000061D282F101406192B2F10100F08D20072
:100E60000E08D1005208F9005108F8000A128A1140
:100E700058240A128A11780883120313A3007908F0
:100E8000A4007A08A500D330A000DE30A1003C30D9
:100E9000A2000A128A112B260A128A118312031346
:100EA0002008B3002108B4002208B5000030B000CB
:100EB0000030B1004030B2000A128A1173250A12C4
:100EC0008A11831203133008C0003108C1003208B0
:100ED000C2000A128A11E5240A128A11831203132E
:100EE0004108D6004008D5005608803AFF008030FF
:100EF0007F02031D7D2F063055020318832F8312B6
:100F000003138615862F8312031386118F018E011A
:100F10000616023083120313CE00CE0B8D2F000075
:100F2000831203130612861E932F1014861A962F0F
:100F300010100F08D4000E08D3005408F90053080D
:100F4000F8000A128A1158240A128A1178088312AA
:100F50000313A3007908A4007A08A500D330A000E9
:100F6000DE30A1003C30A2000A128A112B260A12A0
:100F70008A11831203132008B3002108B400220849
:100F8000B5000030B0000030B1004030B2000A12AD
:100F90008A1173250A128A11831203133008C000C4
:100FA0003108C1003208C2000A128A11E5240A126F
:100FB0008A11831203134108D8004008D70058084B
:100FC000803AFF0080307F02031DE82F0630570271
:100FD0000318EE2F831203138814F12F83120313C7
:100FE0008810823083120313CF00DD30CE00CE0B89
:100FF000F72FCF0BF72F192F83010A128A11FE2E1C
:02400E00723FFF
:00000001FF
